{
  "address": "0xbaA4D02192d0d878Cf09C4727a4B6e8A5E7d58B6",
  "abi": [
    {
      "inputs": [
        {
          "internalType": "address",
          "name": "priceFeedAddress",
          "type": "address"
        }
      ],
      "stateMutability": "nonpayable",
      "type": "constructor"
    },
    {
      "inputs": [],
      "name": "NotOwner",
      "type": "error"
    },
    {
      "stateMutability": "payable",
      "type": "fallback"
    },
    {
      "inputs": [],
      "name": "MINIMUM_USD",
      "outputs": [
        {
          "internalType": "uint256",
          "name": "",
          "type": "uint256"
        }
      ],
      "stateMutability": "view",
      "type": "function"
    },
    {
      "inputs": [
        {
          "internalType": "address",
          "name": "",
          "type": "address"
        }
      ],
      "name": "addressToAmountFunded",
      "outputs": [
        {
          "internalType": "uint256",
          "name": "",
          "type": "uint256"
        }
      ],
      "stateMutability": "view",
      "type": "function"
    },
    {
      "inputs": [],
      "name": "fund",
      "outputs": [],
      "stateMutability": "payable",
      "type": "function"
    },
    {
      "inputs": [
        {
          "internalType": "uint256",
          "name": "",
          "type": "uint256"
        }
      ],
      "name": "funders",
      "outputs": [
        {
          "internalType": "address",
          "name": "",
          "type": "address"
        }
      ],
      "stateMutability": "view",
      "type": "function"
    },
    {
      "inputs": [],
      "name": "i_owner",
      "outputs": [
        {
          "internalType": "address",
          "name": "",
          "type": "address"
        }
      ],
      "stateMutability": "view",
      "type": "function"
    },
    {
      "inputs": [],
      "name": "priceFeed",
      "outputs": [
        {
          "internalType": "contract AggregatorV3Interface",
          "name": "",
          "type": "address"
        }
      ],
      "stateMutability": "view",
      "type": "function"
    },
    {
      "inputs": [],
      "name": "withdraw",
      "outputs": [],
      "stateMutability": "nonpayable",
      "type": "function"
    },
    {
      "stateMutability": "payable",
      "type": "receive"
    }
  ],
  "transactionHash": "0x284fa7e9efe74304f5082b91b6a2ea341bdb397bde33d5c829224bf8e7728888",
  "args": [
    "0xd4a33860578de61dbabdc8bfdb98fd742fa7028e"
  ],
  "numDeployments": 1,
  "solcInputHash": "35ae78961ea8ec8eea34336854ea48f8",
  "bytecode": "0x608060405234801561001057600080fd5b5060405162000fc538038062000fc5833981810160405281019061003491906100d1565b33600260006101000a81548173ffffffffffffffffffffffffffffffffffffffff021916908373ffffffffffffffffffffffffffffffffffffffff16021790555080600360006101000a81548173ffffffffffffffffffffffffffffffffffffffff021916908373ffffffffffffffffffffffffffffffffffffffff1602179055505061014c565b6000815190506100cb81610135565b92915050565b6000602082840312156100e7576100e6610130565b5b60006100f5848285016100bc565b91505092915050565b600061010982610110565b9050919050565b600073ffffffffffffffffffffffffffffffffffffffff82169050919050565b600080fd5b61013e816100fe565b811461014957600080fd5b50565b610e69806200015c6000396000f3fe6080604052600436106100745760003560e01c8063741bef1a1161004e578063741bef1a1461010c578063b60d428814610137578063dba6335f14610141578063dc0d3dff1461016c57610083565b80633ccfd60b1461008d5780633e47d6f3146100a45780636b69a592146100e157610083565b36610083576100816101a9565b005b61008b6101a9565b005b34801561009957600080fd5b506100a26102e3565b005b3480156100b057600080fd5b506100cb60048036038101906100c691906107c1565b610525565b6040516100d891906109b7565b60405180910390f35b3480156100ed57600080fd5b506100f661053d565b60405161010391906109b7565b60405180910390f35b34801561011857600080fd5b5061012161054a565b60405161012e919061095c565b60405180910390f35b61013f6101a9565b005b34801561014d57600080fd5b50610156610570565b6040516101639190610941565b60405180910390f35b34801561017857600080fd5b50610193600480360381019061018e91906107ee565b610596565b6040516101a09190610941565b60405180910390f35b6802b5e3af16b18800006101e8600360009054906101000a900473ffffffffffffffffffffffffffffffffffffffff16346105d590919063ffffffff16565b1015610229576040517f08c379a000000000000000000000000000000000000000000000000000000000815260040161022090610997565b60405180910390fd5b346000803373ffffffffffffffffffffffffffffffffffffffff1673ffffffffffffffffffffffffffffffffffffffff168152602001908152602001600020600082825461027791906109ee565b925050819055506001339080600181540180825580915050600190039060005260206000200160009091909190916101000a81548173ffffffffffffffffffffffffffffffffffffffff021916908373ffffffffffffffffffffffffffffffffffffffff160217905550565b600260009054906101000a900473ffffffffffffffffffffffffffffffffffffffff1673ffffffffffffffffffffffffffffffffffffffff163373ffffffffffffffffffffffffffffffffffffffff161461036a576040517f30cd747100000000000000000000000000000000000000000000000000000000815260040160405180910390fd5b60005b600180549050811015610415576000600182815481106103905761038f610d1f565b5b9060005260206000200160009054906101000a900473ffffffffffffffffffffffffffffffffffffffff16905060008060008373ffffffffffffffffffffffffffffffffffffffff1673ffffffffffffffffffffffffffffffffffffffff1681526020019081526020016000208190555050808061040d90610c78565b91505061036d565b50600067ffffffffffffffff81111561043157610430610d4e565b5b60405190808252806020026020018201604052801561045f5781602001602082028036833780820191505090505b50600190805190602001906104759291906106b1565b5060003373ffffffffffffffffffffffffffffffffffffffff164760405161049c9061092c565b60006040518083038185875af1925050503d80600081146104d9576040519150601f19603f3d011682016040523d82523d6000602084013e6104de565b606091505b5050905080610522576040517f08c379a000000000000000000000000000000000000000000000000000000000815260040161051990610977565b60405180910390fd5b50565b60006020528060005260406000206000915090505481565b6802b5e3af16b188000081565b600360009054906101000a900473ffffffffffffffffffffffffffffffffffffffff1681565b600260009054906101000a900473ffffffffffffffffffffffffffffffffffffffff1681565b600181815481106105a657600080fd5b906000526020600020016000915054906101000a900473ffffffffffffffffffffffffffffffffffffffff1681565b6000806105e183610611565b90506000670de0b6b3a764000085836105fa9190610b8c565b6106049190610a44565b9050809250505092915050565b6000808273ffffffffffffffffffffffffffffffffffffffff1663feaf968c6040518163ffffffff1660e01b815260040160a06040518083038186803b15801561065a57600080fd5b505afa15801561066e573d6000803e3d6000fd5b505050506040513d601f19601f82011682018060405250810190610692919061081b565b5050509150506402540be400816106a99190610a75565b915050919050565b82805482825590600052602060002090810192821561072a579160200282015b828111156107295782518260006101000a81548173ffffffffffffffffffffffffffffffffffffffff021916908373ffffffffffffffffffffffffffffffffffffffff160217905550916020019190600101906106d1565b5b509050610737919061073b565b5090565b5b8082111561075457600081600090555060010161073c565b5090565b60008135905061076781610dd7565b92915050565b60008151905061077c81610dee565b92915050565b60008135905061079181610e05565b92915050565b6000815190506107a681610e05565b92915050565b6000815190506107bb81610e1c565b92915050565b6000602082840312156107d7576107d6610d7d565b5b60006107e584828501610758565b91505092915050565b60006020828403121561080457610803610d7d565b5b600061081284828501610782565b91505092915050565b600080600080600060a0868803121561083757610836610d7d565b5b6000610845888289016107ac565b95505060206108568882890161076d565b945050604061086788828901610797565b935050606061087888828901610797565b9250506080610889888289016107ac565b9150509295509295909350565b61089f81610be6565b82525050565b6108ae81610c42565b82525050565b60006108c1600b836109dd565b91506108cc82610d82565b602082019050919050565b60006108e4601b836109dd565b91506108ef82610dab565b602082019050919050565b60006109076000836109d2565b915061091282610dd4565b600082019050919050565b61092681610c22565b82525050565b6000610937826108fa565b9150819050919050565b60006020820190506109566000830184610896565b92915050565b600060208201905061097160008301846108a5565b92915050565b60006020820190508181036000830152610990816108b4565b9050919050565b600060208201905081810360008301526109b0816108d7565b9050919050565b60006020820190506109cc600083018461091d565b92915050565b600081905092915050565b600082825260208201905092915050565b60006109f982610c22565b9150610a0483610c22565b9250827fffffffffffffffffffffffffffffffffffffffffffffffffffffffffffffffff03821115610a3957610a38610cc1565b5b828201905092915050565b6000610a4f82610c22565b9150610a5a83610c22565b925082610a6a57610a69610cf0565b5b828204905092915050565b6000610a8082610bf8565b9150610a8b83610bf8565b9250827f7fffffffffffffffffffffffffffffffffffffffffffffffffffffffffffffff0482116000841360008413161615610aca57610ac9610cc1565b5b817f80000000000000000000000000000000000000000000000000000000000000000583126000841260008413161615610b0757610b06610cc1565b5b827f80000000000000000000000000000000000000000000000000000000000000000582126000841360008412161615610b4457610b43610cc1565b5b827f7fffffffffffffffffffffffffffffffffffffffffffffffffffffffffffffff0582126000841260008412161615610b8157610b80610cc1565b5b828202905092915050565b6000610b9782610c22565b9150610ba283610c22565b9250817fffffffffffffffffffffffffffffffffffffffffffffffffffffffffffffffff0483118215151615610bdb57610bda610cc1565b5b828202905092915050565b6000610bf182610c02565b9050919050565b6000819050919050565b600073ffffffffffffffffffffffffffffffffffffffff82169050919050565b6000819050919050565b600069ffffffffffffffffffff82169050919050565b6000610c4d82610c54565b9050919050565b6000610c5f82610c66565b9050919050565b6000610c7182610c02565b9050919050565b6000610c8382610c22565b91507fffffffffffffffffffffffffffffffffffffffffffffffffffffffffffffffff821415610cb657610cb5610cc1565b5b600182019050919050565b7f4e487b7100000000000000000000000000000000000000000000000000000000600052601160045260246000fd5b7f4e487b7100000000000000000000000000000000000000000000000000000000600052601260045260246000fd5b7f4e487b7100000000000000000000000000000000000000000000000000000000600052603260045260246000fd5b7f4e487b7100000000000000000000000000000000000000000000000000000000600052604160045260246000fd5b600080fd5b7f43616c6c206661696c6564000000000000000000000000000000000000000000600082015250565b7f596f75206e65656420746f207370656e64206d6f726520455448210000000000600082015250565b50565b610de081610be6565b8114610deb57600080fd5b50565b610df781610bf8565b8114610e0257600080fd5b50565b610e0e81610c22565b8114610e1957600080fd5b50565b610e2581610c2c565b8114610e3057600080fd5b5056fea2646970667358221220c4173abfb40b35686da6b1243ba42318e91d28e92ed8821b78628342f593a1e164736f6c63430008070033",
  "devdoc": {
    "kind": "dev",
    "methods": {},
    "version": 1
  },
  "userdoc": {
    "kind": "user",
    "methods": {},
    "version": 1
  },
  "storageLayout": {
    "storage": [
      {
        "astId": 58,
        "contract": "contracts/FundMe.sol:FundMe",
        "label": "addressToAmountFunded",
        "offset": 0,
        "slot": "0",
        "type": "t_mapping(t_address,t_uint256)"
      },
      {
        "astId": 61,
        "contract": "contracts/FundMe.sol:FundMe",
        "label": "funders",
        "offset": 0,
        "slot": "1",
        "type": "t_array(t_address)dyn_storage"
      },
      {
        "astId": 63,
        "contract": "contracts/FundMe.sol:FundMe",
        "label": "i_owner",
        "offset": 0,
        "slot": "2",
        "type": "t_address"
      },
      {
        "astId": 73,
        "contract": "contracts/FundMe.sol:FundMe",
        "label": "priceFeed",
        "offset": 0,
        "slot": "3",
        "type": "t_contract(AggregatorV3Interface)45"
      }
    ],
    "types": {
      "t_address": {
        "encoding": "inplace",
        "label": "address",
        "numberOfBytes": "20"
      },
      "t_array(t_address)dyn_storage": {
        "base": "t_address",
        "encoding": "dynamic_array",
        "label": "address[]",
        "numberOfBytes": "32"
      },
      "t_contract(AggregatorV3Interface)45": {
        "encoding": "inplace",
        "label": "contract AggregatorV3Interface",
        "numberOfBytes": "20"
      },
      "t_mapping(t_address,t_uint256)": {
        "encoding": "mapping",
        "key": "t_address",
        "label": "mapping(address => uint256)",
        "numberOfBytes": "32",
        "value": "t_uint256"
      },
      "t_uint256": {
        "encoding": "inplace",
        "label": "uint256",
        "numberOfBytes": "32"
      }
    }
  }
}